:100000006F00F00A1300000013000000130000004E
:100010001300000013000000130000001300000094
:100020001300000013000000130000001300000084
:08003000130000007300100032
:100038006FF09FFC000000006F00E06C6F00C06C68
:1000480000000000000000000000000000000000A8
:100058000000000000000000000000000000000098
:100068006F004047000000006F00D0030000000050
:100078006F0050036F0010036F00D0026F009002F2
:100088006F0050026F0010026F00D0016F009001E6
:100098006F0050016F0010016F00D0006F009000DA
:1000A8006F0050006F0010006F00C07F6F00807FEE
:1000B8006F00407F6F00007F6F00C07E000000006F
:1000C8000000000000000000000000006F00807DBC
:1000D8006F00407D6F00007D6F00C07C6F00807CEA
:1000E8006F00407C6F00007C6F00C07B6F00807BDE
:1000F8006F00407B6F00007B6F00C07A6F00807AD2
:100108006F00407A6F00A0596F00C0796F00807946
:100118006F0040796F0000796F00C0786F008078B9
:1001280000000000000000000000000000000000C7
:080138000000000000000000BF
:10014000397101436EC619A0397141536AC866CA34
:1001500062CC5ECE19A0397101535AD056D252D416
:100160004ED64AD826DA22DC06DE3301614082828E
:1001700041114AC026C222C406C68282B24D410144
:10018000024D924C224CB24B4101024B924A224A00
:10019000B2494101024992442244B2404101828065
:1001A0003D432A876373C3029377F700BDEFADE544
:1001B000937606FF3D8ABA960CC34CC30CC74CC756
:1001C0004107E36BD7FE11E28280B306C3408A0683
:1001D0009702000096966780A6002307B700A30643
:1001E000B7002306B700A305B7002305B700A30493
:1001F000B7002304B700A303B7002303B700A3028B
:10020000B7002302B700A301B7002301B700A30082
:10021000B7002300B700828093F5F50F9396850011
:10022000D58D93960501D58D61B7939627009702DA
:10023000000096968682E78086FA9680C1171D8F09
:100240003E96E374C3F8A5B7EFF29FF2392999B748
:10025000EFF21FF2F12C93878181984393063006C9
:100260003307E54063F3E60088C39387C181984371
:100270009306301F3307E54063F3E60088C303A706
:10028000418219CF1306A00F81451385C18323A294
:1002900001823937372500001305C554EF10601A65
:1002A000D5BDEFF2FFEC411185452145EF00304E01
:1002B0008D472312F10037150140C1474C003EC65F
:1002C000130505C08D473EC4EF00B0293725000057
:1002D0001305C555EF10E01641016DBDEFF25FE962
:1002E0000565797185451305458002CA02CC02CEA9
:1002F00002D002D202D402D602C402C623180100E0
:10030000EF00F04893070010231AF1003715014061
:10031000E1473ECE4C088D47130505803734014038
:100320003ECCEF001024930750732C00130504C03B
:100330003EC602C4EF007049C167938707060C10E0
:10034000130504C03ED02313010223140102EF0061
:10035000504F130504C08545EF00F058130504C045
:10036000A145EF00905B130504C08545EF001059CF
:100370008545130504C0EF005055372500001305CF
:10038000C559EF10000C456131B5EFF27FDE797190
:100390001306C00281454800213537040240130589
:1003A0008400EF00B007B72401409387C4443EC2E5
:1003B000B70700209387871B3EC4930700403EC8C1
:1003C0003ED013070008930700023ACC3ED2130731
:1003D00000108D674C00130584003ACE3ED402C64F
:1003E00002CA02D6EF003013130584008545EF00E2
:1003F0001016854513850440F523456161BBEFF276
:100400003FD77971614681452808593B85451305D9
:10041000402002C602C802CAEF0070378545054574
:10042000EF0010353165EF00D02737150140BD478B
:100430006C0013050580372401402316F10002CA21
:10044000EF00301213050440C52185473ECE3ED053
:10045000B7070E003ED22C0891471305044023062F
:10046000F10202CC02D4E521854513050440812325
:100470008545130504402523130504409123930467
:1004800004402685992375FD130504403724014057
:100490008923930404402685912375FD13050440A8
:1004A000112D2390A1829D461305044005468145E8
:1004B000B123130504409D46094685458123130554
:1004C00004409D460D468945152B9D4611468D4598
:1004D000130504402523553D45616DB993878182FD
:1004E00003D707009306703E050742074183239018
:1004F000E70003D7070003D7070063F7E600239060
:100500000700054723A2E182B7F700E02382070036
:10051000A382070023830700A38307002384070027
:10052000A384070023850700A385070073002030FC
:1005300003D581828280B707002003A70708896757
:10054000938707F43357F702B7F700E023A00700BB
:1005500023820700A382070023830700A3830700E9
:1005600023840700A384070023850700A3850700D1
:100570009306F7FF13F6F60F2386C70013D68600FF
:100580001376F60FA386C70013D6060133B7E6002D
:100590001376F60F2387C7007D17E182A387D70064
:1005A0009376F70F2388D7009376F70FA388D700A9
:1005B0002389D7006183A389E700BD4637E700E0C0
:1005C0002306D74085662320D710054798C382802D
:1005D000EFF21FBA1165797185451105EF00301BE7
:1005E00093070020231AF100371401408D473ECCB9
:1005F0004C08E147130504803ECEEF008076930758
:100600000040231AF1004C089147130504803ECEA8
:10061000EF002075F16737440140938707203ED0F3
:100620000C10B7070C00130504803ED402D2231629
:100630000102EF00B02F05469305505213050480C8
:10064000EF00F03A930750132316F1008547230774
:10065000F100680085473EC8EF00C07D8545130561
:100660000480EF001037456135B6EFF27FB00545E5
:10067000EF00407B7D22EF009042993FB7070020BA
:1006800083A50708372500001305C556EF00D0499C
:1006900009395535A131A533372500001305855893
:1006A000EF00305AC5BC411122C6374401409305C2
:1006B000505213050480EF00F03831C51305048053
:1006C000EF00F0361387218283570700A54663E4C5
:1006D000F602835707001375F50F93960701C18241
:1006E00093871600C207C1832310F70093878113F5
:1006F000B6972380A7003745014093055052130554
:100700000580EF007038324441017300203001A0B1
:1007100001A0EFF2FFA50D3E253EFDBFB717024039
:100720009843B706FFF841111367170098C3D843E1
:1007300037060200758FD8C39843B706F7FEFD163B
:10074000758F98C39843B706FCFFFD16758F98C345
:10075000D843B70681FFFD16758FD8C337079F00B2
:1007600098C702C402C69843C166558F98C3B7168E
:100770000240130700509C42F18F3EC6A2478507F6
:100780003EC4B24781E7A247E397E7FEB7170240AE
:100790009C431397E7006354070885473EC63247DA
:1007A0008547631CF706B72702409843B706C1FF89
:1007B000FD161367070198C39843719B98C398432C
:1007C0001367270098C3B7170240D843D8C3D8434C
:1007D000D8C3D84313670740D8C3D843758FD8C34D
:1007E000D843B7061D00558FD8C39843B7060001FC
:1007F000558F98C3984393166700E3DD06FED843F0
:10080000B7160240719BD8C3D84313672700D8C3DB
:100810002147DC42B18BE39EE7FE4101828002C6A4
:10082000BDBFB7160240DC42370700201146B18B2E
:10083000130707086385C70021466389C702B717F6
:100840007A00938707201CC3B7170240DC439183CB
:1008500093F6F700B707002093870700B69783C683
:1008600007001C43B3D7D7001CC38280DC42D042B0
:10087000C983BD8B9315F600890763CD0500B74684
:10088000024083A60680C18A99CAB7167A00938669
:10089000062011A8D4421396E600E35806FEB716C8
:1008A0003D0093860690B387D70271BF01A09701E0
:1008B0000020938121FD174100201301A174172509
:1008C00000001305A5DA97F5FF1F9385A57313861E
:1008D000818163FAC5008322050023A0550011051C
:1008E0009105E3EAC5FE138581819385011763773E
:1008F000B500232005001105E36DB5FE93028008C5
:100900007390023097F2FFFF9382427393E21200DA
:1009100073905230EFF09FE0970200009382A2DFC5
:100920007390123473002030B7270140938707403B
:10093000631EF500EFF2DF83854513050020BD251A
:100940008145130500209D256FF0DF8482805C4186
:100950003707F1FF1307F7EF7D8FDC419441A207C2
:10096000D58FD98F5CC11C4537F7F1FF1307D77FAF
:10097000D4457D8F9C49D58F94458606D58FD98FD8
:100980001CC55C55370710FF7D177D8F83C7450158
:10099000FD1793F7F70FD207D98F5CD582801C45DE
:1009A00089C593E717001CC58280F99BEDBF1C45E4
:1009B00089C593E707101CC5828093F7F7EFE5BF61
:1009C0001C4593E787001CC5828008450D81058979
:1009D00082801C4593E747001CC582800845098139
:1009E000058982801C4591C537075000D98F1CC5E9
:1009F00082803707B0FF7D17F98FD5BFA54763F712
:100A0000B7048D47138765FF3307F7020328C50036
:100A10009D47B397E70093C7F7FFB3F70701B39676
:100A2000E600DD8E54C5994763E3C70495477D16FC
:100A30003306F6025859FD47B397C70093C7F7FF2F
:100A4000F98F3396C5005D8E50D982800D4733876C
:100A5000E502032805019D47B397E70093C7F7FF19
:100A6000B3F70701B396E600DD8E14C96DBFB14739
:100A700063E2C702954765163306F6021859FD472B
:100A8000B397C70093C7F7FFF98F3396C5005D8E04
:100A900010D9828095474D163306F6025855FD470A
:100AA000B397C70093C7F7FFF98FB395C500DD8DE6
:100AB0004CD58280EFF2CFEB01112A842304010090
:100AC000A5448347810063FFF40423040100A54685
:100AD00021468347810063F5F608231501002304AE
:100AE000010095468347810063F3F6100357A10088
:100AF0008357A10099460D46B3F7D7020565130544
:100B00000580B3D7C7023357D702BA97C207C1834C
:100B10002315F1008357A10005611D8D4205418514
:100B20006FF04FE71C4493E787001CC42285713D9A
:100B300075FD1C4493E747001CC42285453575FDAF
:100B400078448347810014108607B6972396E7FE02
:100B500083478100850793F7F70F2304F10095B7CA
:100B6000A304010083479100637AF6008347810064
:100B7000850793F7F70F2304F100A1BF0347910006
:100B8000834791000C100607850786072E97AE97BE
:100B90000357C7FE83D7C7FE63F3E704834791007B
:100BA0008607AE9783D7C7FE2315F10083479100D0
:100BB0000347910085078607AE9783D5C7FE931735
:100BC00017001810BA972396B7FE83479100035772
:100BD000A1000C1085078607AE972396E7FE834792
:100BE0009100850793F7F70FA304F100A5BF834792
:100BF000810010100357A10089078607B29783D799
:100C0000C7FEBA97C207C1832315F100834781004D
:100C1000850793F7F70F2304F100E9B51C414167FD
:100C20007917F98F1CC123200500232205002324F6
:100C30000500B707024023260500138787006317C6
:100C4000E500D8431367F700D8C382801387C70134
:100C50006316E500D8431367070FFDB71387070333
:100C60006318E500D8438566938606F0558FE9BF83
:100C7000138747046315E500D843BD66C5BF1387D6
:100C800087056316E500D843B7060F00C5B713877D
:100C9000C7066316E500D843B706F000C1BF138747
:100CA00007086316E500D843B706000FC1B71387DE
:100CB00087406319E50003A747401367F70023A2A5
:100CC000E74082801387C7416317E50003A74740C9
:100CD0001367070FEDB793870743631BF500B7074B
:100CE000024003A747408566938606F0558FC1BF33
:100CF000B7070240138747446316E50003A7474040
:100D0000BD66EDB713878745E31DE5FA03A74740A6
:100D1000B7060F00E1BF1C4161773D0794517D8FFD
:100D20009C45D58F9449D58FD449D58F944DD58F77
:100D3000D44DD58FD451D58F9455D58FD98F1CC113
:100D4000DC455CC19C411CC5DC415CC582801C410A
:100D500089C593E717001CC1828041677917F98F15
:100D6000DDBF9C4513F7070113F8F70001C7D84111
:100D70003368E80083D5050013F7F50F39C3184130
:100D80008146854E3D4F930F800293028004214E91
:100D90003396DE00B3F8C50063111603939826005E
:100DA00033131F011343F3FF3377E300B318180124
:100DB00033E7E800639FF70550C98506E39AC6FD4F
:100DC00018C11307F00F6375B70454412146854ECF
:100DD0003D4F930F800293028004414EB398CE00A2
:100DE00033F715016392E802131726000117331336
:100DF000EF001343F3FFB376D3003317E800D98E27
:100E0000639DF701232A15010506E319C6FD54C1A8
:100E10008280E39457FA10C94DB7E39757FE232811
:100E20001501DDB7B7E700E0370705FAB8C723A615
:100E3000A182828083A6C182854703470500639211
:100E4000F60283471500639DD7028347250092076A
:100E500093E707F8B7E600E093F7F70FBA96238019
:100E6000F640854693575700B396E600584111CF98
:100E7000938707048A0737E700E0BA9794C3828014
:100E8000EDF3834725009207F1B737E700E093873A
:100E900007063043C1458A072CC3BA9794C330C3B1
:100EA0008280B7160240DC4251777D17F98F5D8D45
:100EB000C8C28280371702405C439146B18B63857C
:100EC000D700A1466386D706B7177A009387072015
:100ED0001CC1371602405C42370700201307070188
:100EE0009183BD8BBA9783C607001C41B3D7D70047
:100EF0005CC15442A1829D8ABA9683C60600B3D6CD
:100F0000D70014C55442AD829D8A36970347070027
:100F1000B3D7E7005CC5584239839376370013870F
:100F20004180369703470700B3D7E7021CC9828088
:100F30005C435443C983BD8B1396F6008907634D08
:100F400006003747024003270780418B19CB37172C
:100F50007A001307072011A858439316E700E3D837
:100F600006FE37173D0013070790B387E7028DB7DA
:100F700099C5371702405C4B5D8D48CB8280B7170F
:100F80000240D84B1345F5FF798DC8CB828099C5B7
:100F9000371702401C4F5D8D08CF8280B717024083
:100FA000984F1345F5FF798D88CF828099C5371703
:100FB00002405C475D8D48C78280B7170240D84722
:100FC0001345F5FF798DC8C78280835705003737F1
:100FD0000140130707C0C207C1836300E50237075A
:100FE0000040630CE500130707406308E50037176E
:100FF0000040130707806317E50003D7250093F728
:10100000F7F8D98F03D7650093F7F7CFC207C183ED
:10101000D98F2310F50083D745002316F50283D717
:1010200005002314F502B7370140938707C0631604
:10103000F50083C785002318F5028547231AF500BC
:1010400082808357050203D6050003D82500C20716
:10105000C183F99BC207C1832310F50283570502A0
:101060008356450003578501C207C1834207418368
:101070001377C7F8518F03D68500F59BC2063366F8
:101080000601D18F37360140130606C0C1826313B3
:10109000C50203D6A500DD9B03D8E500D18F03D69A
:1010A0004500ED9B93F6F6CFD18F03D6C50033668E
:1010B0000601D18E2312D500231CE50003D765005D
:1010C000231AE5022310F50282808357050091C59B
:1010D00093E717002310F5008280C207C183F99BB4
:1010E000C207C183C5BF8357450491C52167D98F06
:1010F0002312F5048280C607C583DDBF8357050030
:1011000091C593E707082310F5008280C207C183C9
:1011100093F7F7F7C207C183FDB783578501C2076D
:10112000C183DD9BDD8D231CB5008280EFF24F84EF
:1011300083560501F577FD17F58F83D6650003D734
:10114000C5007971D58F2318F5008356C500FD774A
:101150009387379FF58F83D645002A842EC6D58F77
:1011600083D68500D58F83D6A500D58F2316F500AD
:1011700083574501C207C18393F7F7CFD98F231A4D
:10118000F5006808053BB747014093870780B245E3
:10119000631FF402A2576547B387E702984193069D
:1011A00040060A07B3D7E70233D7D702B3F7D7020F
:1011B0001207920793872703B3D7D702BD8BD98F26
:1011C000C207C1832314F40045616FE0BFFC92574E
:1011D000D9B781C98357C5000967D98F2316F50090
:1011E00082800357C500F977FD17F98FC5BF13F744
:1011F000F50F85471583B395B7006319F70093077B
:10120000C500984301CED98D8CC38280894693074F
:101210004501E318D7FE93070501E5B793C5F5FF30
:10122000F98DDDB793F5F51F2312B50082800355C4
:1012300045001375F51F8280035505006D8D33350C
:10124000A000828013F7F50F85461583B397B6008B
:101250006313D7020357C500F98F035705000145F3
:101260004207418381CB0545A181B315B5006D8F40
:101270003335E000828089466315D70003570501A6
:10128000E1BF03574501C9BFA1818547B397B700A7
:1012900093C7F7FFC207C1832310F5008280B70709
:1012A000002083A7070837177A0013070720B3D752
:1012B000E70293F7F70F2389F1821307803EB38784
:1012C000E7022398F1828280EFE2FFE8B744014011
:1012D000AE893289014493840480634524014A85A0
:1012E0006FE0BFEA930500042685B93765DDB38753
:1012F00089008385070026850504C205C1811D3745
:10130000E9BF138781801C43938601173E95636B69
:10131000D500B75600209386068063E5A60008C373
:101320003E858280FD57EDBF39713EDA2ED232D430
:1013300036D63AD842DC46DE9387C18022CC804341
:1013400026CA06CEAA8409C41C4C99E3228515231B
:101350000C4454102686228536C6EF007016F240E3
:101360006244D24421618280011126CA4AC806CE55
:1013700022CC4EC652C4AA842E8901C51C4D91E3CD
:10138000CD299C4C804499E32685E52197170000E0
:1013900093870726631CF402C0408357C400A18BC7
:1013A000B1C71C48A1C7FD59294A1C4483450900FF
:1013B000FD17B1E91CC463DE07062286A945268510
:1013C0007120FD576308F502294535A097170000E5
:1013D000938707246314F4008044C1B79717000073
:1013E0009387071FE31BF4FAC04445BFA2852685F7
:1013F000312A55D97D55F2406244D2444249B2491E
:10140000224A056182801CC4050963D70700184C75
:1014100063CBE700638945011C401387170018C0A0
:101420002380B70059B7228626850D20E31F35F7A4
:10143000D1B71C401387170018C029472380E70045
:1014400061B79387C180AA85884339BF011122CC37
:1014500026CA4AC806CE4EC6AA842E89328401C541
:101460001C4D91E339219717000093876718631982
:10147000F406C0401C4C1CC48357C400A18BC9C3D4
:101480001C48BDCF1C4808409379F90F1379F90F18
:101490001D8D5C486346F500A2852685652C2DE5EB
:1014A0001C440505FD171CC41C401387170018C0F9
:1014B000238037015C486389A7008357C400858B6C
:1014C00081CBA9476316F900A285268561240DED1D
:1014D000F24062444A85D2444249B2490561828061
:1014E000971700009387C7126314F400804459B71C
:1014F000971700009387C70DE31EF4F6C0449DBF05
:10150000A285268521203DDD7D59D9B741119387DC
:10151000C18026C2844322C44AC006C62A892E84BA
:1015200089C49C4C99E32685A926971700009387C8
:10153000270C631CF402C0400317C4009317070173
:10154000C18393F68700B5EE93F607019DEEA5479C
:101550002320F900136707042316E4007D55B240E9
:1015600022449244024941018280971700009387E8
:10157000270A6314F4008044C1B7971700009387CB
:101580002705E31BF4FAC04445BF918B8DC74C5827
:1015900089C9930744046384F5004A85352B232ABF
:1015A00004028357C4002322040093F7B7FD2316D7
:1015B000F4001C481CC08357C40093E7870023161F
:1015C000F4001C4881EF8357C4001307002093F7F1
:1015D00007286385E700A2854A8585218357C400D3
:1015E00013F7170005C75C4823240400B307F04035
:1015F0001CCC1C480145A5F78317C40013F7070846
:1016000039DF93E707042316F40089BF898B01476C
:1016100091E3584818C4F1BF83D7C500011122CC0B
:1016200026CA06CE4AC84EC613F78700AA842E845F
:1016300071EFD841634DE000B841634AE0000145D5
:10164000F2406244D2444249B24905618280585412
:101650007DD703A904009396370123A0040063DD1E
:10166000060670488357C400918B99C75C401D8E55
:101670005C5899C33C401D8E5C540C5081462685B5
:101680008297FD570357C400631DF5009440F5474A
:1016900063E8D706B70740208507B3D7D700858B07
:1016A000A5C31C48232204001CC09317370163D82C
:1016B0000700FD576314F5009C4091E368C84C583F
:1016C00023A02401ADDD930744046384F50026853F
:1016D0002121232A0402A5B70C5001468546268500
:1016E0000297FD572A86E31FF5F69C40A5DF754754
:1016F0006385E70059476394E70423A0240181B779
:10170000136707042316E4007D551DBF83A9050157
:10171000E38709F203A905008D8B23A03501330966
:101720003941014791E3D84918C4E35A20F11C54C8
:101730000C50CA864E86268582976349A00083573F
:10174000C40093E707042316F4007DBFAA99330968
:10175000A940E1BF9C49B9CF011122CC06CE2A8411
:1017600011C51C4D81E72EC62922B24597170000EE
:10177000938707E8639BF5004C408397C50095C7A6
:1017800022856244F240056141BD971700009387AE
:1017900027E86394F5000C44CDB7971700009387B2
:1017A00027E3E39CF5FC4C44C9BFF2406244014589
:1017B0000561828001458280411122C406C62A84C7
:1017C0002316B5002317C50023200500232205009A
:1017D000232405002322050623280500232A0500CB
:1017E000232C0500214681451305C505EFE05F9BCD
:1017F00097170000938767B45CD097170000938712
:10180000C7B61CD497170000938707BB5CD4971703
:1018100000009387C7BD00D01CD8B24022444101CC
:10182000828097050000938525F3A9A2411126C265
:10183000130680069384F5FFB384C4024AC02E8940
:1018400022C406C693854407252E2A8401CD232071
:10185000050023222501310508C41386840681452D
:10186000EFE01F942285B240224492440249410194
:1018700082801C4DADE3411106C622C497070000CB
:10188000938767FA1CD5938701819C432324050421
:1018900023260504232805046314F50085471CCD81
:1018A0002A841D2848C02285052808C422852D20A9
:1018B00048C4484001469145013708440546A545BE
:1018C000E53D48440946C945C53D85471CCCB24065
:1018D000224441018280828041119387018126C286
:1018E00084434AC006C69C4C22C42A8999E32685B3
:1018F0004937938484048044DC40FD1763D6070095
:101900009C40B9CF8440C5BF0317C40039E7C177F5
:101910008507232204062320040023220400232415
:1019200004005CC423280400232A0400232C0400A0
:10193000214681451305C405EFE09F86232A040252
:10194000232C040223240404232604042285B24009
:10195000224492440249410182801304840671BFEB
:1019600091454A85E13588C051FDB1472320F900F2
:101970000144E9BF797122D44AD052CC56CA5AC820
:101980005EC606D626D24ECE2A8AAE8A13048504B7
:101990000149054BFD5B09ECB25022544A85925433
:1019A0000259F249624AD24A424BB24B45618280A7
:1019B000044483294400FD1963D409000040E1BFB9
:1019C00083D7C400637BFB008397E40063877701C0
:1019D000A6855285829A3369A90093848406E1BF63
:1019E0001971A6DAAE848395E500A2DC86DE328426
:1019F00063DC050083D7C40023A0060093F7070823
:101A000085E7930700401DA0300836C6EF00B023DD
:101A1000B246E34105FE7247BD67F98F7977BA9701
:101A200093B717009CC2F1BF930700041CC0F65087
:101A30006654D65401450961828083D7C5000111DF
:101A400022CC06CE26CA4AC8898B2E8489CF93071A
:101A500074041CC01CC885475CC8F2406244D24470
:101A600042490561828074003000AA84953FA245F6
:101A70002A892685312201ED8317C40013F7072038
:101A800069FFF19B93E727002316F400C9B7970776
:101A90000000938747D99CD48357C40008C008C866
:101AA00093E707082316F400A2475CC8B24791CF1A
:101AB0008315E4002685EF00B01B01C98357C400DD
:101AC000F19B93E717002316F4008357C400336992
:101AD000F9002316240151B7DDC183A7C5FF4111C9
:101AE00022C406C626C21384C5FF63D307003E94F2
:101AF000AA84EF00D01E938741839C4381EF232269
:101B0000040023AA81822244B240268592444101E6
:101B10006F00101D637EF40014403307D4006396F9
:101B2000E7009843DC43369718C05CC0D9BFBA873A
:101B3000D84319C3E37DE4FE94433386D700631F83
:101B400086001040B29694C33386D700E31DC7FACF
:101B500010435843B29694C3D8C375B76375C40095
:101B6000B1479CC04DB71040B306C4006316D70000
:101B700014435843B29614C058C0C0C369B782809A
:101B8000011126CA93843500F19806CE22CC4AC8AA
:101B90004EC6A104B14763F3F404B14463E2B40454
:101BA0002A89EF00D0139387418398433A8439E020
:101BB000938781839C4391E781454A85812F23AC9C
:101BC000A182A6854A859927FD5963193507B14732
:101BD0002320F9004A85EF00B01029A0E3D004FCCF
:101BE000B1471CC10145F2406244D2444249B24966
:101BF000056182801C40858F63CF0702AD4663F686
:101C0000F6001CC03E9404C031A05C406313870200
:101C100023AAF1824A85EF00B00C1305B4009307A4
:101C2000440061993307F5405DDF3A94898F1CC009
:101C30005DBF5CC3C5B72287404095BF1304350024
:101C40007198E30285FCB305A4404A85C125E31CD5
:101C500035FBB5BF1C46FD171CC663DA0700184EDE
:101C600063C5E700A9476394F5006FF02FFE1C429F
:101C70002E851387170018C22380B70082800111B8
:101C800022CC26CA4AC84EC652C406CE2A89AE897C
:101C90003284B304D6007D5A63149400014509A828
:101CA000834504004E864A8575370504E31645FFD3
:101CB000F2406244D2444249B249224A05618280DC
:101CC000357122CD26CB4AC94EC706CF52C556C361
:101CD0005AC1DEDEE2DCE6DAAA89AE8432893684D5
:101CE00001C51C4D91E3713697170000938747900B
:101CF000639BF40C83A4490083D7C400A18BF5C770
:101D00009C48E5C793070002A304F1029307000370
:101D100002D22305F10222C6930B5002971A00004B
:101D2000938A0A91054C294B4A848347040099C33E
:101D30006390770FB30C2441638D0C00E6864A86CE
:101D4000A6854E852D3FFD576306F51E9256E696F5
:101D500036D283470400638F071CFD571309140014
:101D600002C802CE3ECA02CCA309010482D4834534
:101D7000090015465685B92713041900C24759E9C9
:101D800013F7070109C713070002A309E10413F7BA
:101D9000870009C71307B002A309E10483460900BD
:101DA0001307A0026380E608F2474A84814625466D
:101DB0000347040093051400130707FD6379E60A3F
:101DC000B5CA3ECE85A897170000938767846395B0
:101DD000F40083A489000DB7970700009387477F1D
:101DE000E39CF4F083A4C90001BFA6854E85EFF003
:101DF000EFF109D97D55FA406A44DA444A49BA49B3
:101E00002A4A9A4A0A4BF65B665CD65C0D61828070
:101E1000050421BF330555413315AC00C98F3EC8B9
:101E20002289B1B7324793064700184336C6634943
:101E300007023ACE034704009307E002631FF7044A
:101E4000034714009307A002631BF702B24709047B
:101E5000138747009C433AC663C107023ECA35A8B0
:101E60003307E04093E727003ACE3EC8E1B7B38797
:101E7000670385462E84BA9725BFFD57C5B705046D
:101E800002CA814681472546034704009305140092
:101E9000130707FD6376E606F1F2834504000D465D
:101EA0001705000013054579312D11CD9707000066
:101EB000938787781D8D93070004B397A700424549
:101EC00005045D8D2AC883450400194617050000E6
:101ED0001305C576130914002304B102E5233DC19F
:101EE00097E7FFFF9387071295E74247B2471377BB
:101EF000071009CF91073EC69257D2973ED22DB513
:101F0000B387670385462E84BA97BDBF9D07E19BC3
:101F1000A107D5B7780097060000938686D6268657
:101F20000C084E8597000000E7000000FD572A8A44
:101F3000E314F5FC83D7C40093F70704E39C07EA96
:101F4000125555BD780097060000938686D32686E5
:101F50000C084E85012AD9BF797156CA9C49BA8AA4
:101F6000984522D426D24ECE52CC06D64AD05AC854
:101F70005EC6AA892E84B284368A63D3E700BA8704
:101F80009CC00347340419C385079CC01C4093F7C9
:101F9000070281C79C4089079CC00329040013796C
:101FA0006900631A0900130B9401FD5B5C449840BF
:101FB000998F634CF9041C408346340493F707025D
:101FC000B336D000A5EB13063404D2854E85829A31
:101FD000FD576303F5041C4011469840998B544407
:101FE00081446397C700B384E64063D3040081440F
:101FF0001C4418486354F700998FBE940149690442
:102000007D5B63982405014509A885465A86D285DB
:102010004E85829A631E75017D55B25022549254AA
:102020000259F249624AD24A424BB24B4561828020
:102030000509ADBF3307D40013060003A301C7048D
:102040000347540493871600A2978906A381E704E7
:102050009DBF85462286D2854E85829AE30E65FB1A
:10206000050945B7797122D426D24AD04ECE06D67C
:1020700052CC56CA5AC8B68983C6850193079006C2
:102080003289AA842E8413863504638DF60263E2B6
:10209000D706930780056387F61863EDD700638042
:1020A000062293073004638EF60A930A2404230160
:1020B000D404C9A0930730066385F60A9307400647
:1020C000E395F6FE1C40084393F607089305450088
:1020D000C5C61C410CC363D807001307D002B30761
:1020E000F040A301E404970600009386A655294713
:1020F0006DA8930700076383F61663E5D70293077D
:10210000E006638AF6189307F006E390F6FA0C40AF
:102110001C4313F80508138547006307080608C326
:102120009C438DA893075007E383F6FE930780072F
:10213000638AF61293073007E399F6F61C43D04101
:1021400081459386470014C383AA070056859D2EB8
:1021500001C53305554148C05C401CC8A3010404B7
:1021600071A81C43930A2404938647009C4314C31C
:102170002301F4048547D5B793F607041C410CC32B
:10218000B9DAC207C18781BF93F5050408C3C9D96D
:1021900083D707001307F0066387E60E9706000053
:1021A0009386464A2947A30104044C400CC463C5E6
:1021B000050008406D9908C099E3B28A91CDB28AB2
:1021C000B3F5E702FD1AB69583C505002380BA0072
:1021D000B3D5E70263FFE70AA147631EF7001C407F
:1021E000858B91CB58401C4863C7E70093070003D9
:1021F000A38FFAFEFD1A3306564110C84E87CA86D1
:102200007000A2852685893B7D5A631E450B7D554E
:10221000B250225492540259F249624AD24A424B75
:1022200045618280A382D50497060000938686418B
:102230000C40084313F805081C411105630D080202
:1022400008C313F7150001C793E505020CC0414709
:10225000B9FB0C4093F5F5FD0CC0B1B79C4193E779
:1022600007029CC193078007A302F40497060000AD
:102270009386863E75BF13F8050408C3E30308FC84
:10228000C207C1837DBF970600009386A63B214706
:1022900019BFAE8735B794411C43CC4913F80608E3
:1022A000138547006306080008C39C438CC301A83C
:1022B00008C393F606049C43F5DA2390B70023285D
:1022C0000400B28A25BF14485686CA85268582999D
:1022D000E30F45F31C40898B8DE7B2474844E3592F
:1022E000F5F23E8535B785465686CA85268582999C
:1022F000E30F65F1050A5C443247998FE345FAFE26
:10230000E9BF014A930A94017D5BF5B7411122C4EC
:102310002A842E8523A6011606C6EFE09FFEFD57F0
:102320006317F5009387C1169C4391C31CC0B2404C
:10233000224441018280411122C42E848395E5000C
:1023400006C64522634905007C48AA977CC8B2406E
:102350002244410182808357C4007D777D17F98F25
:102360002316F400EDB783D7C500011122CC26CA8D
:102370004AC84EC606CE93F70710AA842E84328927
:10238000B68991C78395E500894601463122835776
:10239000C4007D777D17F98F2316F4008315E400C0
:1023A0006244F240CE864A86B24942492685D244EA
:1023B00005613DA8411122C42E848395E50006C61F
:1023C000E128FD570357C400631BF500FD77FD1797
:1023D000F98F2316F400B2402244410182808567C0
:1023E000D98F2316F40068C8FDB78395E50005A8CA
:1023F000411122C42A842E85B285368623A6011671
:1024000006C6EFE07FECFD576317F5009387C11612
:102410009C4391C31CC0B2402244410182804111BF
:1024200022C42A842E8523A6011606C6CD20FD5778
:102430006317F5009387C1169C4391C31CC0B2403B
:10244000224441018280411122C42A842E85B28512
:1024500023A6011606C6D120FD576317F500938702
:10246000C1169C4391C31CC0B240224441018280EA
:10247000411122C42A842E8523A6011606C6652092
:10248000FD576317F5009387C1169C4391C31CC089
:10249000B240224441018280411122C42A842E8507
:1024A000B285368623A6011606C66120FD5763173E
:1024B000F5009387C1169C4391C31CC0B2402244CF
:1024C0004101828093F5F50F2A966314C5000145FA
:1024D000828083470500E38DB7FE0505FDB7828046
:1024E0008280411122C42A842E85B285368623A695
:1024F000011606C6A920FD576317F5009387C1167C
:102500009C4391C31CC0B240224441018280930786
:10251000800523A6F1167D5582809307800523A6AA
:10252000F1167D5582809307800523A6F11601459B
:1025300082809307800523A6F1167D55828093073C
:10254000800523A6F1167D558280000045766572D0
:1025500079205365636F6E640D0000004750494F4A
:1025600020496E697420646F6E650000537973743E
:10257000656D20436C6F636B2073657420746F20EE
:10258000256C7520487A0A0052657475726E207445
:102590006F206D61696E206C6F6F700050574D2019
:1025A000696E697469616C697A65642040203339A9
:1025B000206B487A20283830204D487A20636C6F91
:1025C000636B292C205041380000000000000000FF
:1025D00000000000000000000000000000000000FB
:1025E00000000000000000000000000000000000EB
:1025F00000000000000000000000000000000000DB
:1026000000000000000000000000000000000000CA
:1026100000000000000000000000000000000000BA
:10262000000000000000000000000000232D302BFF
:1026300020000000686C4C00656667454647000056
:1026400030313233343536373839414243444546E8
:1026500000000000303132333435363738396162AA
:082660006364656600000000E0
:10266800000000000000000001020304060708093A
:102678000000000001020304010203040607080920
:1026880000000000EC2500000C260000CC2500000E
:102698000000000000000000000000000000000032
:1026A8000000000000000000000000000000000022
:1026B8000000000000000000000000000000000012
:1026C8000000000000000000000000000000000002
:1026D80000000000000000000000000000000000F2
:1026E80000A24A0402040608F00900202000002085
:0826F80020000020000000009A
:00000001FF
