:100000006F009009130000001300000013000000AF
:100010001300000013000000130000001300000094
:100020001300000013000000130000001300000084
:08003000130000007300100032
:100038006FF09FFC000000006F00806B6F00606B2A
:1000480000000000000000000000000000000000A8
:100058000000000000000000000000000000000098
:100068006F004047000000006F00700200000000B1
:100078006F00F0016F00B0016F0070016F00300178
:100088006F00F0006F00B0006F0070006F0030006C
:100098006F00E07F6F00A07F6F00607F6F00207FA0
:1000A8006F00E07E6F00A07E6F00607E6F00207E94
:1000B8006F00E07D6F00A07D6F00607D0000000094
:1000C8000000000000000000000000006F00207C1D
:1000D8006F00E07B6F00A07B6F00607B6F00207B70
:1000E8006F00E07A6F00A07A6F00607A6F00207A64
:1000F8006F00E0796F00A0796F0060796F00207958
:100108006F00E0786F0040586F0060786F002078CB
:100118006F00E0776F00A0776F0060776F0020773F
:1001280000000000000000000000000000000000C7
:080138000000000000000000BF
:10014000397101436EC619A0397141536AC866CA34
:1001500062CC5ECE19A0397101535AD056D252D416
:100160004ED64AD826DA22DC06DE3301614082828E
:1001700041114AC026C222C406C68282B24D410144
:10018000024D924C224CB24B4101024B924A224A00
:10019000B2494101024992442244B2404101828065
:1001A0003D432A876373C3029377F700BDEFADE544
:1001B000937606FF3D8ABA960CC34CC30CC74CC756
:1001C0004107E36BD7FE11E28280B306C3408A0683
:1001D0009702000096966780A6002307B700A30643
:1001E000B7002306B700A305B7002305B700A30493
:1001F000B7002304B700A303B7002303B700A3028B
:10020000B7002302B700A301B7002301B700A30082
:10021000B7002300B700828093F5F50F9396850011
:10022000D58D93960501D58D61B7939627009702DA
:10023000000096968682E78086FA9680C1171D8F09
:100240003E96E374C3F8A5B7EFF29FF2312999B750
:10025000EFF21FF2F12C93878181984393063006C9
:100260003307E54063F3E60088C39387C181984371
:100270009306301F3307E54063F3E60088C303A706
:10028000418219CF1306A00F81451385C18323A294
:100290000182393737250000130545E1EF100015BD
:1002A000D5BDEFF2FFEC411185452145EF00D04C63
:1002B0008D472312F10037150140C1474C003EC65F
:1002C000130505C08D473EC4EF00502837250000B8
:1002D000130545E2EF10801141016DBDEFF25FE9BA
:1002E0000565797185451305458002CA02CC02CEA9
:1002F00002D002D202D402D602C402C623180100E0
:10030000EF00904793070010231AF10037150140C2
:10031000E1473ECE4C088D47130505803734014038
:100320003ECCEF00B022930750732C00130504C09D
:100330003EC602C4EF001048C167938707060C1041
:10034000130504C03ED02313010223140102EF0061
:10035000F04D130504C08545EF009057130504C008
:10036000A145EF00305A130504C08545EF00B05792
:100370008545130504C0EF00F05337250000130531
:1003800085E4EF10A006456131B5EFF27FDE7971AB
:100390001306C00281454800213537040240130589
:1003A0008400EF005006B72401409387C4443EC246
:1003B000B70700209387871B3EC4930700403EC8C1
:1003C0003ED013070008930700023ACC3ED2130731
:1003D00000108D674C00130584003ACE3ED402C64F
:1003E00002CA02D6EF00D011130584008545EF0044
:1003F000B014854513850440D92B456161BBEFF2EC
:100400003FD77971614681452808593B85451305D9
:10041000402002C602C802CAEF00103685450545D5
:10042000EF00B0333165EF00702637150140BD474E
:100430006C0013050580372401402316F10002CA21
:10044000EF00D01013050440E92185473ECE3ED091
:10045000B7070E003ED22C0891471305044023062F
:10046000F10202CC02D4C9298545130504402D238D
:10047000854513050440092B130504403D239304CF
:1004800004402685052B75FD1305044037240140E3
:1004900035239304044026853D2375FD1305044050
:1004A000FD2B2390A1829D461305044005468145FE
:1004B0001D2B130504409D46094685452D23130534
:1004C00004409D460D468945392B9D4611468D4574
:1004D00013050440092B553D45616DB99387818211
:1004E00003D707009306703E050742074183239018
:1004F000E70003D7070003D7070063F7E600239060
:100500000700054723A2E182B7F700E02382070036
:10051000A382070023830700A38307002384070027
:10052000A384070023850700A385070073002030FC
:1005300003D581828280B707002003A70708896757
:10054000938707F43357F702B7F700E023A00700BB
:1005500023820700A382070023830700A3830700E9
:1005600023840700A384070023850700A3850700D1
:100570009306F7FF13F6F60F2386C70013D68600FF
:100580001376F60FA386C70013D6060133B7E6002D
:100590001376F60F2387C7007D17E182A387D70064
:1005A0009376F70F2388D7009376F70FA388D700A9
:1005B0002389D7006183A389E700BD4637E700E0C0
:1005C0002306D74085662320D710054798C382802D
:1005D000EFF21FBA1165797185451105EF00D01949
:1005E00093070020231AF100371401408D473ECCB9
:1005F0004C08E147130504803ECEEF0020759307B9
:100600000040231AF1004C089147130504803ECEA8
:10061000352FF16737440140938707203ED00C10F7
:10062000B7070C00130504803ED402D22316010242
:10063000EF00702E05469305505213050480EF001D
:10064000B039930750132316F10085472307F100B3
:10065000680085473EC8EF00807C8545130504800F
:10066000EF00D03545613DB6EFF29FB00545EF0094
:10067000007A692AEF005041A13F25316D3DB9391B
:10068000BD3B37250000130545E3EF00305619B692
:10069000411122C63744014093055052130504808E
:1006A000EF00F03831C513050480EF00F0361387F2
:1006B000218283570700A54663E4F60283570700AB
:1006C0001375F50F93960701C18293871600C20731
:1006D000C1832310F70093878113B6972380A70067
:1006E000374501409305505213050580EF007038DF
:1006F000324441017300203001A001A0EFF25FA756
:10070000A136B936FDBFB71702409843B706FFF8C8
:1007100041111367170098C3D84337060200758F3D
:10072000D8C39843B706F7FEFD16758F98C3984354
:10073000B706FCFFFD16758F98C3D843B70681FF37
:10074000FD16758FD8C337079F0098C702C402C62D
:100750009843C166558F98C3B716024013070050DF
:100760009C42F18F3EC6A24785073EC4B24781E74F
:10077000A247E397E7FEB71702409C431397E700B1
:100780006354070885473EC632478547631CF70612
:10079000B72702409843B706C1FFFD16136707014C
:1007A00098C39843719B98C398431367270098C3D5
:1007B000B7170240D843D8C3D843D8C3D843136728
:1007C0000740D8C3D843758FD8C3D843B7061D0098
:1007D000558FD8C39843B7060001558F98C39843E7
:1007E00093166700E3DD06FED843B7160240719BFF
:1007F000D8C3D84313672700D8C32147DC42B18B45
:10080000E39EE7FE4101828002C6BDBFB7160240EB
:10081000DC42370700201146B18B130707086385B8
:10082000C70021466389C702B7177A00938707205C
:100830001CC3B7170240DC43918393F6F700B70758
:10084000002093870700B69783C607001C43B3D7E1
:10085000D7001CC38280DC42D042C983BD8B931574
:10086000F600890763CD0500B746024083A60680DF
:10087000C18A99CAB7167A009386062011A8D44275
:100880001396E600E35806FEB7163D0093860690E1
:10089000B387D70271BF01A097010020938181FE29
:1008A0001741002013010176171500001305056399
:1008B00097F5FF1F938505751386818163FAC5003F
:1008C0008322050023A0550011059105E3EAC5FE2A
:1008D00013858181938501176377B5002320050077
:1008E0001105E36DB5FE930280087390023097F214
:1008F000FFFF9382A27493E2120073905230EFF0E4
:100900009FE0970200009382A2DF7390123473007D
:100910002030B727014093870740631EF500EFF2B0
:100920003F85854513050020BD2581451305002021
:100930009D256FF03F8682805C413707F1FF1307EA
:10094000F7EF7D8FDC419441A207D58FD98F5CC131
:100950001C4537F7F1FF1307D77FD4457D8F9C499E
:10096000D58F94458606D58FD98F1CC55C55370722
:1009700010FF7D177D8F83C74501FD1793F7F70F94
:10098000D207D98F5CD582801C4589C593E71700B3
:100990001CC58280F99BEDBF1C4589C593E70710F4
:1009A0001CC5828093F7F7EFE5BF1C4593E78700EE
:1009B0001CC5828008450D81058982801C4593E70E
:1009C00047001CC5828008450981058982801C4535
:1009D00091C537075000D98F1CC582803707B0FFFB
:1009E0007D17F98FD5BFA54763F7B7048D471387E8
:1009F00065FF3307F7020328C5009D47B397E7005B
:100A000093C7F7FFB3F70701B396E600DD8E54C531
:100A1000994763E3C70495477D163306F602585994
:100A2000FD47B397C70093C7F7FFF98F3396C5000B
:100A30005D8E50D982800D473387E502032805017A
:100A40009D47B397E70093C7F7FFB3F70701B39646
:100A5000E600DD8E14C96DBFB14763E2C70295475A
:100A600065163306F6021859FD47B397C70093C7BA
:100A7000F7FFF98F3396C5005D8E10D982809547B8
:100A80004D163306F6025855FD47B397C70093C776
:100A9000F7FFF98FB395C500DD8D4CD58280EFF25D
:100AA0002FED01112A8423040100A544834781000E
:100AB00063FFF40423040100A54621468347810017
:100AC00063F5F608231501002304010095468347CA
:100AD000810063F3F6100357A1008357A1009946E4
:100AE0000D46B3F7D702056513050580B3D7C702D6
:100AF0003357D702BA97C207C1832315F100835732
:100B0000A10005611D8D420541856FF0AFE81C44D1
:100B100093E787001CC42285713D75FD1C4493E753
:100B200047001CC42285453575FD78448347810004
:100B300014108607B6972396E7FE83478100850742
:100B400093F7F70F2304F10095B7A304010083473F
:100B50009100637AF60083478100850793F7F70FCA
:100B60002304F100A1BF03479100834791000C10BB
:100B70000607850786072E97AE970357C7FE83D7CC
:100B8000C7FE63F3E704834791008607AE9783D7D8
:100B9000C7FE2315F10083479100034791008507A5
:100BA0008607AE9783D5C7FE931717001810BA971C
:100BB0002396B7FE834791000357A1000C108507C9
:100BC0008607AE972396E7FE83479100850793F744
:100BD000F70FA304F100A5BF83478100101003574E
:100BE000A10089078607B29783D7C7FEBA97C207C5
:100BF000C1832315F10083478100850793F7F70F21
:100C00002304F100E9B51C4141677917F98F1CC134
:100C1000232005002322050023240500B7070240F6
:100C200023260500138787006317E500D843136761
:100C3000F700D8C382801387C7016316E500D84345
:100C40001367070FFDB7138707036318E500D84341
:100C50008566938606F0558FE9BF138747046315B1
:100C6000E500D843BD66C5BF138787056316E50059
:100C7000D843B7060F00C5B71387C7066316E5004C
:100C8000D843B706F000C1BF138707086316E50015
:100C9000D843B706000FC1B7138787406319E50033
:100CA00003A747401367F70023A2E740828013871A
:100CB000C7416317E50003A747401367070FEDB768
:100CC00093870743631BF500B707024003A747401C
:100CD0008566938606F0558FC1BFB707024013871C
:100CE00047446316E50003A74740BD66EDB7138789
:100CF0008745E31DE5FA03A74740B7060F00E1BFAC
:100D00001C4161773D0794517D8F9C45D58F944957
:100D1000D58FD449D58F944DD58FD44DD58FD451FF
:100D2000D58F9455D58FD98F1CC1DC455CC19C41B2
:100D30001CC5DC415CC582801C4189C593E7170056
:100D40001CC1828041677917F98FDDBF9C4513F77D
:100D5000070113F8F70001C7D8413368E80083D5CD
:100D6000050013F7F50F39C318418146854E3D4FF5
:100D7000930F800293028004214E3396DE00B3F875
:100D8000C500631116039398260033131F01134304
:100D9000F3FF3377E300B318180133E7E800639FEC
:100DA000F70550C98506E39AC6FD18C11307F00F71
:100DB0006375B70454412146854E3D4F930F800221
:100DC00093028004414EB398CE0033F7150163922D
:100DD000E8021317260001173313EF001343F3FF44
:100DE000B376D3003317E800D98E639DF701232A29
:100DF00015010506E319C6FD54C18280E39457FA34
:100E000010C94DB7E39757FE23281501DDB7B7E7A3
:100E100000E0370705FAB8C723A6A182828083A61F
:100E2000C1828547034705006392F6028347150098
:100E3000639DD70283472500920793E707F8B7E63B
:100E400000E093F7F70FBA962380F6408546935754
:100E50005700B396E600584111CF938707048A07DD
:100E600037E700E0BA9794C38280EDF3834725000B
:100E70009207F1B737E700E0938707063043C14593
:100E80008A072CC3BA9794C330C38280B716024036
:100E9000DC4251777D17F98F5D8DC8C2828037178C
:100EA00002405C439146B18B6385D700A1466386BF
:100EB000D706B7177A00938707201CC13716024060
:100EC0005C4237070020130707019183BD8BBA9757
:100ED00083C607001C41B3D7D7005CC15442A1822E
:100EE0009D8ABA9683C60600B3D6D70014C554426D
:100EF000AD829D8A369703470700B3D7E7005CC5EC
:100F000058423983937637001387418036970347D9
:100F10000700B3D7E7021CC982805C435443C983EE
:100F2000BD8B1396F6008907634D060037470240D4
:100F300003270780418B19CB37177A001307072047
:100F400011A858439316E700E3D806FE37173D0073
:100F500013070790B387E7028DB799C5371702408B
:100F60005C4B5D8D48CB8280B7170240D84B134550
:100F7000F5FF798DC8CB828099C5371702401C4F89
:100F80005D8D08CF8280B7170240984F1345F5FF5B
:100F9000798D88CF828099C5371702405C475D8D77
:100FA00048C78280B7170240D8471345F5FF798DAF
:100FB000C8C782808357050037370140130707C031
:100FC000C207C1836300E50237070040630CE500F8
:100FD000130707406308E500371700401307078031
:100FE0006317E50003D7250093F7F7F8D98F03D7E8
:100FF000650093F7F7CFC207C183D98F2310F5009F
:1010000083D745002316F50283D705002314F50284
:10101000B7370140938707C06316F50083C7850083
:101020002318F5028547231AF500828083570502AD
:1010300003D6050003D82500C207C183F99BC20768
:10104000C1832310F50283570502835645000357D9
:101050008501C207C183420741831377C7F8518FC7
:1010600003D68500F59BC20633660601D18F37365D
:101070000140130606C0C1826313C50203D6A50052
:10108000DD9B03D8E500D18F03D64500ED9B93F699
:10109000F6CFD18F03D6C50033660601D18E231259
:1010A000D500231CE50003D76500231AE5022310B1
:1010B000F50282808357050091C593E7170023103E
:1010C000F5008280C207C183F99BC207C183C5BFF7
:1010D0008357450491C52167D98F2312F504828077
:1010E000C607C583DDBF8357050091C593E7070891
:1010F0002310F5008280C207C18393F7F7F7C20778
:10110000C183FDB783578501C207C183DD9BDD8D98
:10111000231CB5008280EFF2AF8583560501F57779
:10112000FD17F58F83D6650003D7C5007971D58F7C
:101130002318F5008356C500FD779387379FF58FF9
:1011400083D645002A842EC6D58F83D68500D58FB9
:1011500083D6A500D58F2316F50083574501C20716
:10116000C18393F7F7CFD98F231AF5006808053BA1
:10117000B747014093870780B245631FF402A25727
:101180006547B387E7029841930640060A07B3D73D
:10119000E70233D7D702B3F7D70212079207938734
:1011A0002703B3D7D702BD8BD98FC207C1832314BE
:1011B000F40045616FE01FFE9257D9B781C983578C
:1011C000C5000967D98F2316F50082800357C50033
:1011D000F977FD17F98FC5BF13F7F50F854715830D
:1011E000B395B7006319F7009307C500984301CE84
:1011F000D98D8CC38280894693074501E318D7FEB9
:1012000093070501E5B793C5F5FFF98DDDB793F5B4
:10121000F51F2312B5008280035545001375F51F95
:101220008280035505006D8D3335A000828013F751
:10123000F50F85461583B397B6006313D70203579E
:10124000C500F98F0357050001454207418381CB53
:101250000545A181B315B5006D8F3335E00082805F
:1012600089466315D70003570501E1BF03574501C0
:10127000C9BFA1818547B397B70093C7F7FFC207DE
:10128000C1832310F5008280B707002083A70708D9
:1012900037177A0013070720B3D7E70293F7F70F42
:1012A0002389F1821307803EB387E7022398F182F6
:1012B0008280EFE25FEAB7440140AE89328901449F
:1012C00093840480634524014A856FE01FEC9305F5
:1012D00000042685B93765DDB3878900838507005B
:1012E00026850504C205C1811D37E9BF13878180AA
:1012F0001C43938601173E95636BD500B7560020BB
:101300009386068063E5A60008C33E858280FD576C
:10131000EDBF011126CA4AC806CE22CC4EC652C421
:10132000AA842E8901C51C4D91E3CD299C4C804493
:1013300099E32685E52197170000938727B6631C5C
:10134000F402C0408357C400A18BB1C71C48A1C799
:10135000FD59294A1C4483450900FD17B1E91CC405
:1013600063DE07062286A94526857120FD5763089E
:10137000F502294535A097170000938727B4631419
:10138000F4008044C1B797170000938727AFE31B91
:10139000F4FAC04445BFA2852685312A55D97D552A
:1013A000F2406244D2444249B249224A05618280F5
:1013B0001CC4050963D70700184C63CBE700638999
:1013C00045011C401387170018C02380B70059B788
:1013D000228626850D20E31F35F7D1B71C401387E1
:1013E000170018C029472380E70061B79387C180A1
:1013F000AA85884339BF011122CC26CA4AC806CE25
:101400004EC6AA842E89328401C51C4D91E3392130
:1014100097170000938787A86319F406C0401C4CF7
:101420001CC48357C400A18BC9C31C48BDCF1C4832
:1014300008409379F90F1379F90F1D8D5C486346C5
:10144000F500A2852685652C2DE51C440505FD17B4
:101450001CC41C401387170018C0238037015C4848
:101460006389A7008357C400858B81CBA947631686
:10147000F900A285268561240DEDF24062444A857B
:10148000D2444249B2490561828097170000938790
:10149000E7A26314F400804459B7971700009387BC
:1014A000E79DE31EF4F6C0449DBFA285268521205A
:1014B0003DDD7D59D9B741119387C18026C2844350
:1014C00022C44AC006C62A892E8489C49C4C99E34A
:1014D0002685A926971700009387479C631CF40272
:1014E000C0400317C40093170701C18393F6870018
:1014F000B5EE93F607019DEEA5472320F90013678B
:1015000007042316E4007D55B24022449244024968
:1015100041018280971700009387479A6314F40073
:101520008044C1B79717000093874795E31BF4FAEF
:10153000C04445BF918B8DC74C5889C9930744045B
:101540006384F5004A85252B232A04028357C400AF
:101550002322040093F7B7FD2316F4001C481CC097
:101560008357C40093E787002316F4001C4881EFDB
:101570008357C4001307002093F707286385E7000B
:10158000A2854A85B9298357C40013F7170005C7F8
:101590005C4823240400B307F0401CCC1C480145E0
:1015A000A5F78317C40013F7070839DF93E707048B
:1015B0002316F40089BF898B014791E3584818C46A
:1015C000F1BF83D7C500011122CC26CA06CE4AC876
:1015D0004EC613F78700AA842E8471EFD841634D5D
:1015E000E000B841634AE0000145F2406244D24461
:1015F0004249B2490561828058547DD703A904004D
:101600009396370123A0040063DD060670488357D4
:10161000C400918B99C75C401D8E5C5899C33C40B7
:101620001D8E5C540C50814626858297FD570357CA
:10163000C400631DF5009440F54763E8D706B7077B
:1016400040208507B3D7D700858BA5C31C4823222C
:1016500004001CC09317370163D80700FD576314BB
:10166000F5009C4091E368C84C5823A02401ADDDEF
:10167000930744046384F50026851121232A04027C
:10168000A5B70C500146854626850297FD572A8648
:10169000E31FF5F69C40A5DF75476385E7005947D2
:1016A0006394E70423A0240181B71367070423167A
:1016B000E4007D551DBF83A90501E38709F203A955
:1016C00005008D8B23A0350133093941014791E392
:1016D000D84918C4E35A20F11C540C50CA864E86CF
:1016E000268582976349A0008357C40093E70704C7
:1016F0002316F4007DBFAA993309A940E1BF9C4994
:10170000B9CF011122CC06CE2A8411C51C4D81E728
:101710002EC62922B2459707000093872778639B3E
:10172000F5004C408397C50095C722856244F2407E
:10173000056141BD97070000938747786394F500E2
:101740000C44CDB79707000093874773E39CF5FCE3
:101750004C44C9BFF24062440145056182800145A5
:101760008280411122C406C62A842316B50023179D
:10177000C500232005002322050023240500232281
:10178000050623280500232A0500232C05002146F1
:1017900081451305C505EFE0BFA0970700009387BB
:1017A00007485CD0970700009387674A1CD49707C7
:1017B00000009387A74E5CD497070000938767517A
:1017C00000D01CD8B240224441018280970500001D
:1017D000938525F3A9A2411126C21306800693849E
:1017E000F5FFB384C4024AC02E8922C406C693857D
:1017F0004407052E2A8401CD23200500232225013C
:10180000310508C4138684068145EFE07F9922855F
:10181000B240224492440249410182801C4DADE312
:10182000411106C622C497070000938767FA1CD5AA
:10183000938701819C432324050423260504232840
:1018400005046314F50085471CCD2A841D2848C073
:101850002285052808C422852D2048C44840014619
:101860009145013708440546A545E53D48440946EC
:10187000C945C53D85471CCCB24022444101828008
:10188000828041119387018126C284434AC006C6E3
:101890009C4C22C42A8999E3268549379384840481
:1018A0008044DC40FD1763D607009C40B9CF8440DC
:1018B000C5BF0317C40039E7C17785072322040693
:1018C0002320040023220400232404005CC42328D2
:1018D0000400232A0400232C04002146814513051B
:1018E000C405EFE0FF8B232A0402232C04022324E7
:1018F0000404232604042285B2402244924402496F
:10190000410182801304840671BF91454A85E13507
:1019100088C051FDB1472320F9000144E9BF797126
:1019200022D44AD052CC56CA5AC85EC606D626D24F
:101930004ECE2A8AAE8A130485040149054BFD5B0D
:1019400009ECB25022544A8592540259F249624A33
:10195000D24A424BB24B4561828004448329440001
:10196000FD1963D409000040E1BF83D7C400637B45
:10197000FB008397E40063877701A6855285829AEE
:101980003369A90093848406E1BF1971A6DAAE8495
:101990008395E500A2DC86DE328463DC050083D714
:1019A000C40023A0060093F707089DE393070040B7
:1019B00015A0300836C6952EB246E34205FE7247A2
:1019C000BD67F98F7977BA9793B717009CC2F9BFB3
:1019D000930700041CC0F6506654D65401450961B3
:1019E000828083D7C500011122CC06CE26CA4AC800
:1019F000898B2E8489CF930774041CC01CC885472B
:101A00005CC8F2406244D24442490561828074005D
:101A10003000AA849D3FA2452A892685192201ED1E
:101A20008317C40013F7072069FFF19B93E7270092
:101A30002316F400C9B797070000938767D99CD491
:101A40008357C40008C008C893E707082316F400AA
:101A5000A2475CC8B24789CF8315E4002685DD2CF8
:101A600001C98357C400F19B93E717002316F400C4
:101A70008357C4003369F9002316240159B7CDC137
:101A800083A7C5FF411122C406C626C21384C5FF21
:101A900063D307003E94AA84012E938741839C431D
:101AA00099EB2322040023AA81822244B240268596
:101AB00092444101DDAC637EF40014403307D4004E
:101AC0006396E7009843DC43369718C05CC0E1BFDB
:101AD000BA87D84319C3E37DE4FE94433386D70025
:101AE000631F86001040B29694C33386D700E31E6E
:101AF000C7FA10435843B29694C3D8C37DB76375F1
:101B0000C400B1479CC055B71040B306C40063166B
:101B1000D70014435843B29614C058C0C0C371B71D
:101B20008280011126CA93843500F19806CE22CC1A
:101B30004AC84EC6A104B14763F1F404B14463E05E
:101B4000B4042A8995249387418398433A8431E0E9
:101B5000938781839C4391E781454A85512823AC33
:101B6000A182A6854A856920FD5963173507B147CB
:101B70002320F9004A85152C29A0E3D204FCB147A3
:101B80001CC10145F2406244D2444249B249056158
:101B900082801C40858F63CE0702AD4663F6F60057
:101BA0001CC03E9404C031A05C406312870223AA8B
:101BB000F1824A85DD2A1305B40093074400619938
:101BC0003307F54061D33A94898F1CC065BF5CC36D
:101BD000CDB722874040A5BF130435007198E303B9
:101BE00085FCB305A4404A852120E31D35FB41B7A0
:101BF000411122C42A842E8523A6011606C6EFF0C1
:101C0000EFEEFD576317F5009387C1169C4391C310
:101C10001CC0B240224441018280411122C42E8462
:101C20008395E50006C65922634905007C48AA97BA
:101C30007CC8B2402244410182808357C4007D7732
:101C40007D17F98F2316F400EDB783D7C500011176
:101C500022CC26CA4AC84EC606CE93F70710AA84DD
:101C60002E843289B68991C78395E500894601465D
:101C700031228357C4007D777D17F98F2316F40036
:101C80008315E4006244F240CE864A86B249424956
:101C90002685D24405613DA8411122C42E84839536
:101CA000E50006C6E128FD570357C400631BF50095
:101CB000FD77FD17F98F2316F400B240224441014D
:101CC00082808567D98F2316F40068C8FDB7839595
:101CD000E50005A8411122C42A842E85B2853686E6
:101CE00023A6011606C6EFF0CFDCFD576317F500FB
:101CF0009387C1169C4391C31CC0B240224441014A
:101D00008280411122C42A842E8523A6011606C68C
:101D1000E120FD576317F5009387C1169C4391C3DB
:101D20001CC0B240224441018280411122C42A8455
:101D30002E85B28523A6011606C66D20FD576317B2
:101D4000F5009387C1169C4391C31CC0B240224446
:101D500041018280411122C42A842E8523A60116C6
:101D600006C67920FD576317F5009387C1169C437B
:101D700091C31CC0B240224441018280411122C45F
:101D80002A842E85B285368623A6011606C6BD2076
:101D9000FD576317F5009387C1169C4391C31CC080
:101DA000B24022444101828082808280411122C45B
:101DB0002A842E85B285368623A6011606C6A9205A
:101DC000FD576317F5009387C1169C4391C31CC050
:101DD000B2402244410182809307800523A6F11678
:101DE0007D5582809307800523A6F1167D5582805C
:101DF0009307800523A6F11601458280930780058D
:101E000023A6F1167D5582809307800523A6F1163F
:101E10007D5582804576657279205365636F6E6467
:101E20000D0000004750494F20496E697420646FCF
:101E30006E65000052657475726E20746F206D615E
:101E4000696E206C6F6F700050574D20696E697419
:101E500069616C697A65642040203339206B487A67
:101E600020283830204D487A20636C6F636B292C12
:101E70002050413800000000000000000000000079
:101E80000000000000000000000000000000000052
:101E90000000000000000000000000000000000042
:101EA0000000000000000000000000000000000032
:101EB0000000000000000000000000000000000022
:101EC0000000000000000000000000000000000012
:081ED00000000000000000000A
:101ED80000000000000000000102030406070809D2
:101EE80000000000010203040102030406070809B8
:101EF80000000000981E0000B81E0000781E0000B8
:101F080000000000000000000000000000000000C9
:101F180000000000000000000000000000000000B9
:101F280000000000000000000000000000000000A9
:101F38000000000000000000000000000000000099
:101F48000000000000000000000000000000000089
:101F580000A24A0402040608F0090020200000201C
:081F6800200000200000000031
:00000001FF
